:1000000008308A0000280000D424CD223A10251898
:10001000B23ABA123019751D2518B23A0000D4242C
:10002000CD223A102518B23ABA123019751D25188A
:10003000B23A00004927492A20244129C42B4129EA
:100040004500C827CD22201020102010201020109D
:100050002000D424CD223A102518B23ABA12301911
:10006000751D2518B23A0001CD20CE2A4126A026C2
:100070004F2245102010201020100001D424CD2242
:100080003A102518B23ABA123019751D2518B23A2D
:100090000001C12AD427A0264F224510201020108D
:1000A000201020100001D424CD223A102518B23A95
:1000B000BA123019751D2518B23A0001D424CD2288
:1000C0003A102518B23ABA123019751D2518B23AED
:1000D0000001D424CD223A102518B23ABA123019B0
:1000E000751D2518B23A0001D3225410C82755298E
:1000F0003A102532201020102000D3225410CD2495
:10010000CE2AD4223A102532201020102000D320ED
:10011000D622A029452AD424CE2320172E00A5308C
:100120008400831300080319A2280630F800F701A1
:10013000F70B9828F80B97287B30F700F70B9E28D1
:10014000800B9528080083162C18AA288312061104
:10015000AC2883168312061583160611AC18B42832
:1001600083128610B628831683128614831686108F
:100170002C19BE2883128813C0288316831288176F
:1001800083168813AC19C82883120813CA2883164B
:10019000831208178316081300008312861583162E
:1001A00086110230F700F70BD328D62800008312FF
:1001B000861183168611831208008316AD01061579
:1001C00000308312061901308316AD048614003006
:1001D000831286180130F7000310F70D7708831695
:1001E000AD04881700308312881B0130F700F70D2B
:1001F000F70DFC30F70577088316AD0408170030BB
:100200008312081B0130F700F70DF70DF70DF830DA
:10021000F70577088316AD042D08F800831208004F
:100220008316861186120612831286128316861290
:1002300006158614881708178312061683160612E9
:100240000000831286158316861100008312DD20BC
:1002500078088316AC00831286118316861100007D
:1002600083128615831686113529362900008312DC
:10027000DD2078088316AB00831286118316861161
:1002800006118610881308132C0EF700F030F705BE
:1002900077082B04F8007808AB00AB1B1829A908D5
:1002A000031D562983128612582983168312861637
:1002B00083168612000083120612831606120000AF
:1002C00083128611831686112A0EAB000F30AB0500
:1002D0002B08AC008312A32083162A080F39AB0029
:1002E000AC008312A320080028308316A0000C3035
:1002F000A1000130A2000630A300831286118316EC
:1003000086118312861283168612831206128316B2
:10031000061206118610881308138611861206121B
:100320000F30A50083128F200130FD007D08033CB3
:10033000031CA62903308316AC008312A3200530CA
:100340008316A50083128F20FD0A9629023083169A
:10035000AC008312A32005308316A50083128F20E2
:10036000FD017D08033C031CC329A0307D078400E8
:1003700083130008FE008316A9017E08AA008312D9
:100380001021FD0AB1298A150A128B288316260B23
:10039000CA29CD294030A700CE29A7010130250266
:1003A000A70727088038A800A9012808AA008312F7
:1003B0001021080083162408073A83120319EA293A
:1003C0000B3A0319F129063A0319FD29023A0319D8
:1003D000052A0C2A01308316A500A6008312C62127
:1003E000132A8316A9010130AA00831210210230BA
:1003F0008316A50083128F20132A01308316A500CF
:100400000230A6008312C621132A8316A9011030D8
:10041000AA0083121021132A01308316A900240890
:10042000AA008312102108000B088316A000831273
:100430008B13831603178C170C1400000000031392
:10044000A01F252A83128B178316831203170C080B
:100450007F390319862A83160313A000831203171A
:100460000D0883160313A100831203170F088316C8
:100470000313A2002008A4008312DA2183162108A6
:10048000831203178D0083160313220883120317A8
:100490008F0003130B088316A30083128B1383169C
:1004A00003178C170C14000000000313A31F5B2A12
:1004B00083128B178316831203170C0D0E0D7F39D1
:1004C0000319862A83160313A000831203170D084D
:1004D00083160313A100831203170F088316031357
:1004E000A2002008A4008312DA21831621088312B7
:1004F00003178D00831603132208831203178F003E
:100500008D0A03198F0A0313142A03170313080013
:1005100003308316A002031C972AA03084008313A3
:1005200000080319972A952A952A800B942A83128A
:100530000800FD017D08043C031CBA2A061483163A
:1005400006100430FE00C730A00083128822FE0B84
:10055000AA2AAC2A8316A32A061083160610133083
:10056000A50083128F20C8308316A0008312882232
:10057000FD0A9A2A0800831605168312051ACF2A47
:10058000831605168312051EC02A0A308316A5009D
:1005900083128F20F30A7308053C031CF301F30850
:1005A000031DDE2A8316091483120918DE2A831616
:1005B00009148312091CD72A0330F3007308023C84
:1005C0000318F92A8316091483120918EE2A8316D0
:1005D00009148312091CE72AF40AF92A83168914DC
:1005E00083128918F92A831689148312891CF32A25
:1005F000F4038A150A12B2280830F8000430F70014
:10060000F70B002B8711A0112008831687000330F9
:10061000F700F70B092BA60D83120712031C162BEC
:1006200020162008831687001A2B83122012200818
:100630008316870000008312A01520088316870008
:100640008312871D212BF80BFE2A0430F700F70BCD
:10065000272B8711A0112008831687000000831222
:1006600020162008831687000330F700F70B362B7F
:100670000330F700F70B3A2B8312A01520088316DE
:1006800087008312871D422BF8010330F700F70B18
:10069000472B071A78148711A011200883168700AA
:1006A0008312071220122008831687008312080085
:1006B00008308316A2007708A300831220162008B2
:1006C000831687000330F700F70B642B8312A01505
:1006D0002008831687008312871D6C2B071A0314CA
:1006E000071E0310F80D0430F700F70B752BA0114F
:1006F000200883168700831287118316A20B5D2BB7
:10070000831220162008831687000330F700F70BAA
:10071000872B83120712831623080319942B831245
:10072000201220088316870000008312A0152008DD
:10073000831687008312871D9B2B0430F700F70B6D
:100740009F2B8711A0112008831687000330F70024
:10075000F70BA82B8312071220122008831687009C
:100760008312080083162208A3000310A30C78301C
:10077000A305230CF700F70C3F30F7057708230794
:10078000A40022080F392407F800831208000B0880
:100790008316A00083128B13831603178C170C1477
:1007A000000000000313A01FD82B83128B178316A1
:1007B0000318112C831203170C087F3983160313B7
:1007C000A000831203170D0883160313A1008312E0
:1007D00003170F0883160313A2002008A400831236
:1007E000DA2183162108831203178D008316031361
:1007F0002208831203178F0003130B088316A3002C
:1008000083128B13831603178C170C14000000003F
:100810000313A31F0E2C83128B178316FD0B112CB1
:100820003F2C831203170C0D0E0D7F398316031313
:10083000A000831203170D0883160313A10083126F
:1008400003170F0883160313A2002008A4008312C5
:10085000DA2183162108831203178D0083160313F0
:100860002208831203178F008D0A03198F0A0310C1
:10087000FD0B3B2C3D2C0313C72B83160313831254
:10088000080083162508F801240203184A2C2408BE
:10089000F700562CF7010830A600A40DF70D250827
:1008A00077020318F700F80DA60B4D2C83120800F1
:1008B00078087D088316A4006430A50083124124C3
:1008C0007708FD0078083030031D6D2CFE1C762C57
:1008D000FE19762C7E1A2030702CFE117E127E14AA
:1008E000F80778088316A4008312DA217D0883169E
:1008F000A4000A30A500831241247708FD0078087F
:100900003030031D892CFE198F2C7E1C8F2C7E1AF3
:100910002030F80778088316A4008312DA213030DB
:10092000FD077D088316A4008312DA210800FD016B
:100930007D08043C031CBE2C0614831606100130EF
:10094000A50083128F200230FE0095308316A00090
:1009500083128822FE0BA52C061083160610123077
:10096000A50083128F200430FE00AE308316A00055
:1009700083128822FE0BB52CFD0A982C08009724C0
:100980000230FD00FA308316A50083128F20FD0B84
:10099000C22C992208000715201120088316870011
:1009A00088168312881EAD2D71080139013C031D84
:1009B000AD2D0B138B138B1BDA2C201620088316FE
:1009C00087000430F700F70BE32C8312A0152008F2
:1009D000831687000330F700F70BEC2C8312071205
:1009E00020122008831687000430F700F70BF62C3E
:1009F00083128711A011200883168700D030A6002B
:100A00008312FC228316A6018312FC2220162008E2
:100A1000831687000430F700F70B0C2D8312A01506
:100A20002008831687000330F700F70B152D83127B
:100A3000871D182D07122012200883168700043006
:100A4000F700F70B212D83128711A01120088316C0
:100A50008700D130A6008312FC220130F700582312
:100A600078087F39FD008316A2008312B22378082C
:100A7000F0000130F700582378087F39FD00831615
:100A8000A2008312B2237808F100F70158237808F6
:100A90003F39FD008316A2008312B2237808F200CA
:100AA000201220088316870000008312A01520085A
:100AB000831687008312871D5B2D0430F700F70B28
:100AC0005F2D622D00002016200883168700043059
:100AD000F700F70B692DC03083128B0401308316A9
:100AE000A5000230A6008312C621043003178D0032
:100AF00000308F0003100630FD000313C723720877
:100B0000FD000130FE0058243A308316A400831201
:100B1000DA217108FD000130FE0058243A308316B6
:100B2000A4008312DA217008FD000130FE00582471
:100B30008714A0102008831687001430A5008312A4
:100B40008F208710A0102008831687001430A5007E
:100B500083128F208316D02C831297240230FD003D
:100B6000FA308316A50083128F20FD0BB02D992239
:100B700064308316A50083128F20071120112008EE
:100B80008316870008168312081E9F2E71080139EC
:100B9000013C031D9F2E0B138B138B1BCC2D20169A
:100BA0002008831687000430F700F70BD52D831239
:100BB000A0152008831687000330F700F70BDE2D01
:100BC0008312071220122008831687000430F700D2
:100BD000F70BE82D83128711A011200883168700D8
:100BE000D030A6008312FC228316A6018312FC22B9
:100BF00020162008831687000430F700F70BFE2D1F
:100C00008312A0152008831687000330F700F70B26
:100C1000072E8312871D0A2E071220122008831622
:100C200087000430F700F70B132E83128711A011F1
:100C3000200883168700D130A6008312FC220130E1
:100C4000F700582378087F39FD008316A20083122D
:100C5000B2237808F0000130F700582378087F3974
:100C6000FD008316A2008312B2237808F100F70179
:100C7000582378083F39FD008316A2008312B2235F
:100C80007808F200201220088316870000008312E3
:100C9000A0152008831687008312871D4D2E04306F
:100CA000F700F70B512E542E000020162008831653
:100CB00087000430F700F70B5B2EC03083128B04E3
:100CC00001308316A5000230A6008312C6210F3022
:100CD00003178D0000308F0003100630FD00031352
:100CE000C7237208FD000130FE0058243A308316F5
:100CF000A4008312DA217108FD000130FE0058249F
:100D00003A308316A4008312DA217008FD00013006
:100D1000FE0058248714A010200883168700143082
:100D2000A50083128F208710A0102008831687004B
:100D30001430A50083128F208316C22D83128A15CA
:100D40000A12EB2C20307E1E30308316A0007D0866
:100D5000F700FD1FB32EF709F70A7708FD002D30C5
:100D6000A000FE177E147D08A4006430A500831245
:100D700041247708FD00303078078316A1007D08F4
:100D8000A4000A30A500831241243030770783166F
:100D9000A30030307807A2002008F700303021028D
:100DA0000319D62EFE14FE1B7E15EA2E2008A10084
:100DB0002030A000303022020319E22E7E14FE1BE8
:100DC000FE14EA2E031D7E14031DEA2E2108A20044
:100DD0002030A1007E19F12EFE18F62E7E18FB2E73
:100DE000002F2008A4008312DA2183162108A40012
:100DF0008312DA2183162208A4008312DA218316D3
:100E00002308A4008312DA21080083162508A6000F
:100E1000A7012608093C0318122F0A30A602103039
:100E2000A707152F2608A707162F092F2708F80050
:100E3000831208000B138B138B1B1B2F8316A41319
:100E40003F30A20583122016200883168700043045
:100E5000F700F70B292F8312A015200883168700AF
:100E60000330F700F70B322F8312071220122008ED
:100E7000831687000430F700F70B3C2F831287118D
:100E8000A011200883168700D030A6008312FC2210
:100E90008316A6018312FC2283162408A500831260
:100EA000052778088316A500A6008312FC22831666
:100EB0002308A5008312052778088316A500A6003D
:100EC0008312FC2283162208A500831205277808C6
:100ED0008316A500A6008312FC2283162108A50014
:100EE0008312052778088316A500A6008312FC222A
:100EF0007D088316A5008312052778088316A500B0
:100F0000A6008312FC227E088316A5008312052703
:100F100078088316A500A6008312FC2283162008F9
:100F2000A5008312052778088316A500A600831262
:100F3000FC22201220088316870000008312A015CF
:100F40002008831687008312871DA42F0430F70022
:100F5000F70BA82FAB2F0000201620088316870060
:100F60000430F700F70BB22FC03083128B048A15C0
:040F70000A125F2ED4
:1010000003081F398300FF30A000EF01EE018316B3
:101010001F149F141F159F1107309C0083134C3021
:101020008312A1007530A2006E30A3006530A400C9
:101030007330A500A601A701A801A901AA01AB016F
:101040004D30AC006130AD007230AE007430AF0096
:101050006530B0007330B100B201B301B401B50125
:10106000B6014D30B7006930B800E930B9007230D0
:10107000BA006330BB006F30BC006C30BD0065301F
:10108000BE007330BF00C001C1014A30C2007530DC
:10109000C3006530C4007630C5006530C6007330CB
:1010A000C700C801C901CA01CB01CC015630CD002F
:1010B0006930CE006530CF007230D0006E30D10084
:1010C0006530D2007330D300D401D501D601D701E9
:1010D0005330D800E130D9006230DA006130DB00F3
:1010E0006430DC006F30DD00DE01DF01E001E10192
:1010F000E2014430E3006F30E4006D30E500693018
:10110000E6006E30E7006730E8006F30E900EA0182
:10111000EB018A1174298A1501308316A500A600F7
:101120008A118312C6218A151A3003178D000030E8
:101130008F008A11031314228A1583168516023034
:10114000FD00FA30A5008A1183128F208A15FD0B4D
:10115000AA28AC288316A1288A1199228A15F3019E
:101160008A11BB2A8A15F308031DA7290B138B13B9
:101170008B1BB72820162008831687000430F70041
:10118000F70BC0288312A0152008831687000330B0
:10119000F700F70BC92883120712201220088316C4
:1011A00087000430F700F70BD32883128711A011B2
:1011B000200883168700D030A6008A118312FC22F3
:1011C0008A158316A6018A118312FC228A1520161D
:1011D0002008831687000430F700F70BED288312F0
:1011E000A0152008831687000330F700F70BF628B8
:1011F0008312871DF9280712201220088316870002
:101200000430F700F70B022983128711A011200880
:1012100083168700D130A6008A118312FC228A151A
:101220000130F7008A1158238A1578087F39FD00AC
:101230008316A2008A118312B2238A157808F0005F
:101240000130F7008A1158238A1578087F39FD008C
:101250008316A2008A118312B2238A157808F1003E
:10126000F7018A1158238A1578083F39FD00831643
:10127000A2008A118312B2238A157808F200201284
:1012800020088316870000008312A015200883160B
:1012900087008312871D4A290430F700F70B4E2977
:1012A0005129000020162008831687000430F7001B
:1012B000F70B5829C03083128B0401308316A50028
:1012C000A6008A118312C6218A15213003178D00CA
:1012D00000308F008A11031314228A1501308316FF
:1012E000A5000230A6008A118312C6218A15293072
:1012F00003178D0000308F0003100630FD008A11A7
:101300000313C7238A157208FD000130FE008A11FD
:1013100058248A153A308316A4008A118312DA21E0
:101320008A157108FD000130FE008A1158248A15C3
:101330003A308316A4008A118312DA218A157008C4
:10134000FD000130FE008A1158248A15612E730BAE
:10135000092B0B138B138B1BAA292016200883162D
:1013600087000430F700F70BB3298312A01520087B
:10137000831687000330F700F70BBC29831207128E
:1013800020122008831687000430F700F70BC629C7
:1013900083128711A011200883168700D030A60081
:1013A0008A118312FC228A158316A6018A118312E0
:1013B000FC228A1520162008831687000430F700C7
:1013C000F70BE0298312A01520088316870003304D
:1013D000F700F70BE9298312871DEC290712201269
:1013E0002008831687000430F700F70BF5298312D5
:1013F0008711A011200883168700D130A6008A111A
:101400008312FC228A150130F7008A1158238A15AD
:1014100078087F39FD008316A2008A118312B22357
:101420008A157808F0000130F7008A1158238A15D0
:1014300078087F39FD008316A2008A118312B22337
:101440008A157808F100F7018A1158238A1578085F
:101450003F39FD008316A2008A118312B2238A1538
:101460007808F200201220088316870000008312FB
:10147000A0152008831687008312871D3D2A04309B
:10148000F700F70B412A442A000020162008831693
:1014900087000430F700F70B4B2AC03083128B040F
:1014A00001308316A500A6008A118312C6218A1571
:1014B000343003178D0000308F008A11031314227B
:1014C0008A1501308316A5000230A6008A11831206
:1014D000C6218A153E3003178D0000308F0003109F
:1014E0000630FD008A110313C7238A157208FD0018
:1014F0000130FE008A1158248A153A308316A40060
:101500008A118312DA218A157108FD000130FE006C
:101510008A1158248A153A308316A4008A1183123E
:10152000DA218A157008FD000130FE008A11582466
:101530008A158316091483120918A22A8A11BF2456
:101540008A15082B8316891483128918082B831691
:1015500089148312891CA72A0715201120088316D5
:10156000870088168312881ECE2A8714A0102008B0
:10157000831687001430A5008A1183128F208A15E4
:101580008710A0102008831687001430A5008A1148
:1015900083128F208A158316B12A83128A11972409
:1015A0008A150230FD00FA308316A5008A118312D5
:1015B0008F208A15FD0BD32A8A1199228A1564304F
:1015C0008316A5008A1183128F208A150711201116
:1015D00020088316870008168312081E082B87141C
:1015E000A0102008831687001430A5008A118312EA
:1015F0008F208A158710A0102008831687001430CA
:10160000A5008A1183128F208A158316EB2A831274
:10161000612E7308023C031DD22D01308316A500F4
:10162000A6008A118312C6218A15493003178D003E
:1016300000308F008A11031314228A15013083169B
:10164000A5000230A6008A118312C6218A155330E4
:1016500003178D0000308F0003100630FD008A1143
:101660000313C7238A157208FD000130FE008A119A
:1016700058248A153A308316A4008A118312DA217D
:101680008A157108FD000130FE008A1158248A1560
:101690003A308316A4008A118312DA218A15700861
:1016A000FD000130FE008A1158248A150B138B139C
:1016B0008B1B572B20162008831687000430F70059
:1016C000F70B602B8312A0152008831687000330C8
:1016D000F700F70B692B83120712201220088316DC
:1016E00087000430F700F70B732B83128711A011CA
:1016F000200883168700D030A6008A118312FC22AE
:101700008A158316A6018A118312FC228A152016D7
:101710002008831687000430F700F70B8D2B831207
:10172000A0152008831687000330F700F70B962BCF
:101730008312871D992B0712201220088316870019
:101740000430F700F70BA22B83128711A011200899
:1017500083168700D130A6008A118312FC228A15D5
:101760000130F7008A1158238A1578087F39FD0067
:101770008316A2008A118312B2238A157808F0001A
:101780000130F7008A1158238A1578087F39FD0047
:101790008316A2008A118312B2238A157808F100F9
:1017A000F7018A1158238A1578083F39FD008316FE
:1017B000A2008A118312B2238A157808F20020123F
:1017C00020088316870000008312A01520088316C6
:1017D00087008312871DEA2B0430F700F70BEE2BEE
:1017E000F12B000020162008831687000430F70034
:1017F000F70BF82BC03083128B0471080139031DDD
:10180000E92C8A11BF248A1571080139031DE82CBF
:101810000B138B138B1B092C2016200883168700B3
:101820000430F700F70B122C8312A0152008831642
:1018300087000330F700F70B1B2C831207122012CE
:101840002008831687000430F700F70B252C83123D
:101850008711A011200883168700D030A6008A11B6
:101860008312FC228A158316A6018A118312FC2298
:101870008A1520162008831687000430F700F70B1E
:101880003F2C8312A0152008831687000330F70031
:10189000F70B482C8312871D4B2C071220122008AF
:1018A000831687000430F700F70B542C831287113E
:1018B000A011200883168700D130A6008A11831258
:1018C000FC228A150130F7008A1158238A157808FE
:1018D0007F39FD008316A2008A118312B2238A1574
:1018E0007808F0000130F7008A1158238A1578082B
:1018F0007F39FD008316A2008A118312B2238A1554
:101900007808F100F7018A1158238A1578083F39C1
:10191000FD008316A2008A118312B2238A1578086B
:10192000F200201220088316870000008312A01501
:101930002008831687008312871D9C2C0430F70033
:10194000F70BA02CA32C000020162008831687007C
:101950000430F700F70BAA2CC03083128B0401303F
:101960008316A5000230A6008A118312C6218A15AB
:101970005E3003178D0000308F0003100630FD002D
:101980008A110313C7238A157208FD000130FE0077
:101990008A1158248A153A308316A4008A118312BA
:1019A000DA218A157108FD000130FE008A115824E1
:1019B0008A153A308316A4008A118312DA218A1517
:1019C0007008FD000130FE008A1158248A15042C8D
:1019D000D12D8A11CB2C8A1571080139013C031DC8
:1019E000D12D0B138B138B1BF22C20162008831682
:1019F00087000430F700F70BFB2C8312A01520089A
:101A0000831687000330F700F70B042D83120712AB
:101A100020122008831687000430F700F70B0E2DE4
:101A200083128711A011200883168700D030A600EA
:101A30008A118312FC228A158316A6018A11831249
:101A4000FC228A1520162008831687000430F70030
:101A5000F70B282D8312A01520088316870003306A
:101A6000F700F70B312D8312871D342D071220123A
:101A70002008831687000430F700F70B3D2D8312F2
:101A80008711A011200883168700D130A6008A1183
:101A90008312FC228A150130F7008A1158238A1517
:101AA00078087F39FD008316A2008A118312B223C1
:101AB0008A157808F0000130F7008A1158238A153A
:101AC00078087F39FD008316A2008A118312B223A1
:101AD0008A157808F100F7018A1158238A157808C9
:101AE0003F39FD008316A2008A118312B2238A15A2
:101AF0007808F20020122008831687000000831265
:101B0000A0152008831687008312871D852D0430B9
:101B1000F700F70B892D8C2D000020162008831666
:101B200087000430F700F70B932DC03083128B042D
:101B300001308316A5000230A6008A118312C62147
:101B40008A15693003178D0000308F0003100630AE
:101B5000FD008A110313C7238A157208FD000130A6
:101B6000FE008A1158248A153A308316A4008A117F
:101B70008312DA218A157108FD000130FE008A11F6
:101B800058248A153A308316A4008A118312DA2168
:101B90008A157008FD000130FE008A1158248A154C
:101BA000EC2C612E7308033C031D062E7408F5000F
:101BB00001308316A500A6008A118312C6218A155A
:101BC000743003178D0000308F0003100A30FD00C1
:101BD0008A110313C7238A157508FD001830FE000B
:101BE0008A11A2268A157A3003178D0000308F00E3
:101BF00003100530FD008A110313C7238A157508E9
:101C00000C3C0318052EF501F401612E7308043C09
:101C1000031D3A2E7408F60001308316A500A600B5
:101C20008A118312C6218A157D3003178D0000307A
:101C30008F0003100C30FD008A110313C7238A158F
:101C40007608FD001830FE008A11A2268A1584301D
:101C500003178D0000308F0003100530FD008A113E
:101C60000313C7238A1576083B3C0318392EF60167
:101C7000F401612E7308053C031D612E01308316AB
:101C8000A500A6008A118312C6218A158730031782
:101C90008D0000308F008A11031314228A15123030
:101CA000FD000230FE0010308316A000A10175086F
:101CB000A2007608A300A4018A1183121A2F8A15A4
:061CC000F301B0286300EF
:02400E00323F3F
:00000001FF
;PIC16F877A
;CRC=B2A8  CREATED="22-Thg4-19 16:28"
